:020000040800F2
:1000000000500020AD120008E11200082D03000886
:1000100033030008390300083F0300080000000014
:10002000000000000000000000000000E1120008D5
:10003000E112000800000000E1120008E1120008CF
:10004000E1120008E1120008E1120008E1120008C4
:10005000E1120008E1120008E1120008E1120008B4
:10006000E1120008E1120008E1120008E1120008A4
:10007000E1120008E1120008E1120008E112000894
:10008000E1120008E1120008E1120008250300084F
:1000900029030008E112000831020008E1120008FB
:1000A000E1120008E1120008E1120008E112000864
:1000B000E1120008E1120008E1120008E112000854
:1000C000E1120008E1120008E1120008E112000844
:1000D000E1120008E1120008E1120008E112000834
:1000E000E1120008E1120008E1120008000000001F
:1000F0000000000000000000000000000000000000
:1001000000000000000000005FF808F110B5054C89
:10011000237833B9044B13B10448AFF300800123B3
:10012000237010BD78020020000000006C4500081C
:100130000C4B43B10C4810B50C49AFF300800C4890
:10014000036823B910BD0A48036833B97047094BE7
:10015000002BF7D0BDE810401847064B002BF5D018
:10016000184700BF000000006C4500087C0200201A
:100170007402002000000000154B002B08BF134B39
:100180009D46A3F5803A00218B460F461348144A3A
:10019000121A02F070FC0F4B002B00D098470E4B48
:1001A000002B00D098470020002104000D000D48CE
:1001B000002802D00C4800F0D3FB02F0C1FB200065
:1001C000290000F063FD00F01DFD00BF00000800E5
:1001D00000500020000000007D0C00087802002084
:1001E00050050020610900080000000008B5074C18
:1001F00063684FF4FA701A6823681A420CBFA26849
:10020000E268136002F0D7F9F2E700BF9402002021
:1002100010B5064C002120461C2202F02CFC204682
:10022000BDE810402D2101F01CBE00BF940200204B
:10023000364B70B55A69D2072AD59868344E9968FA
:100240003040B04208BF0126324D9A6801EA0501EC
:1002500008BF9E60A94208BF4FF480752E4C2B4BFF
:1002600002EA040208BF9D60A24204BF4FF480343A
:100270009C60274B984205D0264B994202D0264BD2
:100280009A4205D1254B264A1B68012110689847E0
:100290001E4CE2686369960707D09D0705D51F4B82
:1002A0001F4A1B68002110689847A1696269636949
:1002B0008C0709D5900507D5190405D5174B184AA1
:1002C0001B68052110689847104A9569546915F014
:1002D000040504F48064526908D03CB1120405D5C9
:1002E0000E4B0F4A1B68072110689847074B5B6944
:1002F00055B14CB11B0407D5BDE87040074B084A07
:100300001B6802211068184770BD00BF00640040E0
:10031000010000040001000800000110B4020020E8
:10032000B0020020FFF784BFFFF782BF102300F068
:1003300009B8202300F006B8302300F003B84023AA
:1003400000F000B8EFF30880042172460A4201D0A1
:10035000EFF309809C46244B196802680A60043157
:1003600042680A60043182680A600431C2680A6027
:100370000431F0C147460F6004314F460F6004312D
:1003800057460F6004315F460F60043102690A600E
:10039000083142690A60043182690A600431C26925
:1003A0000A600431034620334FF40076324200D015
:1003B000043375461026354200D148330C46103CB4
:1003C0002360EFF309820A600431EFF308820A60C8
:1003D000043172460A600431EFF314820A60604609
:1003E000014900F0BDF9FEE7E83C000830B50D0E0C
:1003F00091FAA1F4B4FA84F491FAA1F10F23B1FABD
:1004000081F1A40003FA04F44359890023EA0403A8
:1004100002FA01F11943415130BD00007FB5224B72
:1004200004283DD8DFE800F003101B2631009A694C
:100430001E4842F004029A619B6903F00403019391
:10044000019B07B05DF804FB9A69194842F0080265
:100450009A619B6903F008030293029BF1E79A6992
:10046000144842F010029A619B6903F01003039351
:10047000039BE6E79A69104842F020029A619B6963
:1004800003F020030493049BDBE79A690B4842F0D6
:1004900040029A619B6903F040030593059BD0E7F6
:1004A000074802F041F800BF001002400008014078
:1004B000000C0140001001400014014000180140F0
:1004C0005C3C0008431C10B5044604D17622064962
:1004D000064801F009FF002100F056FC012004F05D
:1004E0000F04A04010BD00BF7D3C0008CF3C0008B9
:1004F00070B504464B1C0E46218218D0C1F3031080
:10050000FFF78CFF05463046FFF7DCFF238A084AD9
:1005100003F00F0352F823306561A36105F108036E
:10052000636005F1100314352060A360E56070BDC1
:10053000B03F0008B0F9100000F026BD21B9082234
:1005400081694069FFF752BF0122F9E708B501F060
:10055000BDFB002008BD0000104B10B51B68104CFF
:1005600063B101F0B3FE01F09BFE23681844002341
:1005700023604FF47A73B0FBF3F010BD01F00CFC74
:1005800023682060C31A4FF47A70064A9BB2116840
:100590000B441360B3FBF0F010BD00BFC00200209D
:1005A000BC020020B802002000B589B001F0B8FEFE
:1005B000052101A801F055FC104E114D0424019AAB
:1005C000039B30461A6001F0E7FF019A049B304616
:1005D0001A6001F0E1FF013CF1D10424019A039B70
:1005E00028461A6001F0D8FF019A049B28461A6039
:1005F00001F0D2FF013CF1D1E0E700BFF049020079
:10060000801A060010B5044601F08AFE204602F06A
:100610005EFD21460246022000F03CFABDE8104093
:1006200001F094BE10B5A2B00B460246842101A889
:1006300002F082FD8328044605D9052205490DF103
:10064000830002F00DFA002C02DD01A8FFF7DAFFAB
:1006500022B010BDE23C00080FB407B504A951F860
:10066000040B0191FFF7DEFF03B05DF804EB04B06B
:1006700070470000F0B52C4C002526462B4F85B066
:1006800054F82520294638460135FFF7E5FF0D2DA2
:10069000F6D1A36C04F134010293636C24480193F6
:1006A000236C244C00930EC9FFF7D6FF2168224823
:1006B000FFF7D2FFE16AA26AA36AA06A256BE76B23
:1006C000000C01950090C3F307230297D2B21B4898
:1006D000FFF7C2FFA36A1D0603D5616B1848FFF739
:1006E000BBFFA36A180403D5A16B1648FFF7B4FF3C
:1006F000F36C190712D51448FFF7AEFF336DDA0714
:100700000FD51248FFF7A8FFF36C5B074CBF1048EA
:10071000104805B0BDE8F040FFF79EBF0E48FFF758
:100720009BFF0E48EEE700BFA00300207C3D0008C1
:100730008A3D000800ED00E0D93D0008E73D0008D3
:10074000363E0008443E0008523E0008613E000864
:10075000913E00089D3E0008813E00086E3E000864
:1007600013B504461548FFF777FF302C17D0402CFF
:100770001AD0202C1DD11248FFF76EFF114C1248E1
:10078000FFF76AFFFFF776FF1048FFF765FF0023CA
:100790000F4A0093D26B0F49204601F0E5FE0E4848
:1007A000FFF75AFF0D4CEAE70D48FFF755FF0D4CD8
:1007B000E5E70D48FFF750FF0C4CE0E7EC3C000884
:1007C000153D00083E01FF80423D00084D3D0008F8
:1007D000A00300206C3D0008243D00083F01FF807D
:1007E0002D3D00084001FF80383D00083D01FF809D
:1007F00008B501F025FA00F075FD01F013FA01F0DB
:100800001FFA0122014B1A6008BD00BFC002002080
:1008100000207047036801221B690021184700224D
:10082000036811461B69184703681B69184703686A
:100830009B69184703689B6A184700290CBF6FF033
:100840001800002070470120704770476FF01C00AF
:1008500070476FF015007047012070470020704707
:1008600070470000F8B515460C46064E8F18BC427E
:1008700005D014F8011B304600F002FDF7E72846CA
:10088000F8BD00BFF403002038B58DB215F00104A7
:1008900005D0084800F0CCFB041C18BF0124EB066F
:1008A00005D5044800F0DAFB08B144F010042046F6
:1008B00038BD00BFF403002010B5044602F0C8F8AC
:1008C000204610BD10B50C462AB1044800F0C2FC09
:1008D0002070012010BD104610BD00BFF4030020A1
:1008E00038B51D46074B04460360074B1B6833B9F8
:1008F000064800F00DFC2946044800F0E3FB2046C2
:1009000038BD00BFB43E0008D4020020F40300202C
:1009100000207047002070470C4A10B51368184437
:10092000EFF30881884205D30C22094B4FF0FF30CA
:100930001A6010BD07490C6824B1074909682144B1
:100940008842F1D21060184610BD00BFF4010020AB
:100950004C050020CC020020D0020020012070476E
:10096000012070477047704708B5FFF7FBFF08BDCF
:1009700008B5FFF7F8FF08BD08B5037803F00302D8
:10098000012A0BD02AB140F28C520549054801F0EA
:10099000ABFC43F002030370012008BD002008BD3A
:1009A000FC3E00084B3F000808B5037803F0030243
:1009B000022A05D040F294520449054801F094FC03
:1009C00023F0030343F00103037008BDFC3E00085D
:1009D000713F00083F2870B504462FDC184D55F8CC
:1009E00020305A1C13D1022811DCFFF793FF034675
:1009F00058B92046FFF78CFF034630B9114E3378C3
:100A0000BFF35B8FDB0704D50F4B45F82430184646
:100A100070BD3046FFF7B0FF0028F5D04FF41653F5
:100A2000032202210848FFF75BFF3046FFF7BCFFB7
:100A3000064A07490448FFF791FFE5E70023E6E788
:100A4000F4000020C4020020C8020020F0000020B2
:100A50006108000838B505460024FFF7BBFF0B4BC3
:100A600043F8254030B901F0D7FD092303604FF06A
:100A7000FF3038BD03685B699847051E04DA01F052
:100A8000CBFD6D420560F2E7204638BDF400002042
:100A9000FFF7E0BF38B50C461546FFF79BFF38B9A6
:100AA00001F0BAFD092303604FF0FF34204638BD42
:100AB00003682146DB682A469847041EF6DA01F0EF
:100AC000ABFD64420460EFE708B5131E06DA01F0DF
:100AD000A3FD162303604FF0FF3008BD04D0FFF7DD
:100AE000D9FF40EAE07008BD184608BD38B50C468D
:100AF0001546FFF76FFF38B901F08EFD092303603B
:100B00004FF0FF34204638BD036821469B682A46D3
:100B10009847041EF6DA01F07FFD64420460EFE7B7
:100B2000002A08B503DBBDE80840FFF7DFBF01F08E
:100B300073FD162303604FF0FF3008BD10B5FFF7BB
:100B400049FF044628B901F067FD092303602046E8
:100B500010BD0368DB699847041EF8DA01F05CFDFC
:100B6000644204600024F2E7FFF7E8BF38B50C46A2
:100B70001546FFF72FFF38B901F04EFD092303603A
:100B80004FF0FF34204638BD036821461B692A46D2
:100B90009847041EF6DA01F03FFD64420460EFE777
:100BA000FFF7E4BF10B5FFF715FF30B901F034FDD2
:100BB000092303604FF0FF3010BD03689B6998471D
:100BC000041E04DA01F028FD64420460F2E700200C
:100BD00010BD000005460A4C08B52368986801F06E
:100BE000D3FD2368D86801F0CFFD0120FFF7DAFFBD
:100BF0000220FFF7D7FF0DB1FFF7D6FCFEE700BFDD
:100C00000002002008B5FFF7E5FF38B50D46FFF7F5
:100C1000E1FE044630B901F0FFFC092303604FF008
:100C2000FF3038BD0368DB699847002814BF4FF4D4
:100C300000534FF400436B60236820469B6A98473B
:100C40002861002038BDFFF7E0BF70477047000003
:100C5000074B10B59A6807490748043A52F8044F01
:100C600041F8044F8142F9D14FF000529A6010BD13
:100C700000ED00E0FCFFFF1FE800002008B5FFF7D3
:100C8000E7FFFFF7B5FDFFF7E1FF08BD08B5FFF788
:100C9000DCFFBDE80840FFF7A9BA30B50D0E91FAA8
:100CA000A1F4B4FA84F491FAA1F10F23B1FA81F11D
:100CB000A40003FA04F44359890023EA040302FA66
:100CC00001F11943415130BD30B50D0E91FAA1F437
:100CD000B4FA84F491FAA1F10423B1FA81F1A400E9
:100CE00003FA04F44359890023EA040302FA01F1E8
:100CF0001943415130BD10B591FAA1F2B2FA82F216
:100D000091FAA1F394000F22B3FA83F3090E40582D
:100D1000A24010409B00D84010BD70B51646054655
:100D20000C46FFF7E8FF012E0AD0022E1CD008283F
:100D300029D121462846BDE870400422FFF7ADBF07
:100D4000042804D1082221462846FFF7A6FFEB68B5
:100D5000240A94FAA4F223EA0404B2FA82F20123E8
:100D600093401C43EC6070BD042804D10822214646
:100D70002846FFF792FFEB68240A23EA040394FA5B
:100D8000A4F4EB6070BD70BDB0F1FF3F2DE9F347F7
:100D90008246894604D13E227549764801F0A4FA7C
:100DA0001FFA80F8744B08F00F02C0F3031001F033
:100DB000070553F82240FFF731FB012D06466F4F20
:100DC00040F0C780210E94FAA4F3B3FA83F394FAA7
:100DD000A4F04FF0030EB0FA80F072589B000EFAA8
:100DE00003F322EA03032A4680000EFA00FE43EAD8
:100DF0000E03735021463046013DFFF74EFF012D93
:100E000007D819F0080218BF042221463046FFF720
:100E10005BFFC9F3011221463046FFF77EFFBB6935
:100E200043F00103BB61BB6903F001030193019B24
:100E3000A8F10D03012B79D8514A536823F0E063E0
:100E400043F080635360A8F11308B8F1010F77D81D
:100E50006FE0BB69C9F3032243F00103BB61BB69C7
:100E600003F001030093009B82B1531E092B0DD8A0
:100E7000DFE803F0050E151C232C353E454D404A96
:100E8000536843F0E06343F0010353600922B1E784
:100E90003B4A536843F0E06343F00203F5E7384A06
:100EA000536843F0E06343F00403EEE7344A5368C9
:100EB00043F0E06343F00803E7E7314A536823F067
:100EC000300343F0E06343F01003DEE72C4A53683D
:100ED00023F0C00343F0E06343F04003D5E7284A22
:100EE000536823F4406343F0E06343F40063CCE7CA
:100EF000234A536843F0E06343F44073C5E7204955
:100F00004B6843F0E06343F440634B6072E71C4A74
:100F1000536823F4C04343F0E06343F48043B4E7F1
:100F200067221349174839E7002263E7BAF10F0F28
:100F300089D1134A536823F0E06343F00073536090
:100F400002B0BDE8F087012221463046FFF7A5FE3A
:100F500057E7032DE4D801A353F825F06D0F0008DF
:100F6000470F0008530E0008290F0008082241E728
:100F7000F03F0008CF3C0008B03F000800100240DE
:100F8000000001401F410008431C70B50E4604D10B
:100F900088221A491A4801F0A7F91A4B00F00F02EB
:100FA000C0F3031053F82240FFF738FA21460546F4
:100FB000FFF7A1FE20F00800012807D1F31E022B45
:100FC0000DD8042221462846FFF77EFE032E0BD1C2
:100FD000012221462846BDE87040FFF79EBE002250
:100FE00021462846FFF770FE012EF1D0052E01D0D4
:100FF000022E01D10222ECE70022EAE7F03F0008CE
:10100000CF3C0008B03F00080FB407B5064B05AA57
:101010001B680649D868019201F074FE03B05DF8C0
:1010200004EB04B0704700BF0002002040400008FD
:101030004368094A9B01D35882B01A68120706D543
:10104000002201921A6801925A680192019A186866
:10105000C0F3401002B07047400400204368034AC8
:101060009B01D3581868C0F3C0107047400400209B
:10107000426810B4124904689201545053188268AF
:101080005A60C2689A600269DA6042691A61026A4B
:101090009A610022DA84DA619A84DA859A85B0F955
:1010A0001A20013205D108225A61184610BC00F0FE
:1010B00016BDB0F9182001320CBF04220C22F3E750
:1010C0004004002010B581600C46FFF7D1FF28B125
:1010D0002146BDE810400248FFF796BF10BD00BF93
:1010E00040400008094B98420BD0A3F57443984246
:1010F00009D003F5806398420CBF02204FF0FF3007
:101100007047002070470120704700BF0038014041
:10111000F0B50E4685B0044643493046154600F00A
:10112000EBFE42490746284600F0E6FE01463846F7
:1011300000F0BEFE2060013004D13D223C493D4814
:1011400001F0D2F8022E0AD0032D08D03649022031
:1011500000F0D2FE87421BD1374801F0E5F90127A4
:101160002068364B984215D103F558439A6942F4EA
:1011700080429A619B6903F480430193019BFFF7CE
:10118000B1FF0028606023DAA42229492C48D7E760
:101190000027E5E72B4B98420BD103F5E633DA69DC
:1011A00042F40032DA61DB6903F400330293029BFC
:1011B000E5E7254B9842E2D103F5E433DA6942F4DE
:1011C0008022DA61DB6903F480230393039BD6E773
:1011D0001549304600F048FE1449284600F044FE08
:1011E000721C03D001213046FFF7CEFE6B1C03D0EA
:1011F00001212846FFF7C8FE4FF41653A3600023D1
:101200002683E36023616361236265832046FFF7E1
:101210002FFF3FB101220D4B21461A600C484C2292
:1012200001F01EFC05B0F0BD143C0008CC3B0008EA
:101230006A400008BE400008DA400008003801405B
:101240000F4100080044004000480040D402002044
:10125000F403002038B5054644682846FFF7E8FE49
:101260000028FAD0054AA301D358E968586809B99B
:10127000C0B238BDC0F3080038BD00BF4004002034
:1012800070B506460C4645683046FFF7E7FE002875
:10129000FAD0054AF168AB01D35811B9E4B25C60E9
:1012A00070BDC4F30804FAE74004002008488546EE
:1012B000002103E0074B5B58435004310648074BBD
:1012C00042189A42F6D300F04DFCFEF755FFFEE7B8
:1012D0000050002078450008F0000020780200202F
:1012E000FEE77047074A08B51368032043F0100370
:1012F000136000F009F80F20FFF728F9FFF7F1FF5E
:10130000002008BD00200240074A0002D36800F414
:10131000E06023F4E0631B041B0C43F0BF6343F461
:1013200000330343D360704700ED00E003682DE90C
:10133000F341DB07054610D42B689F075ED42B686A
:10134000190700F195802B685A0700F1BF80EA6900
:10135000002A40F02D81002014E0904C636803F0D7
:101360000C03042B07D0636803F00C03082B0CD18B
:101370006368DE0309D523689C03DDD56B68002B09
:10138000DAD1012002B0BDE8F0816B68B3F5803F8F
:1013900010D1236843F480332360FFF7DDF806465D
:1013A00023689803C8D4FFF7D7F8801B6428F7D9BF
:1013B0000320E7E79BB9236823F480332360236885
:1013C00023F480232360FFF7C7F8064623689903B8
:1013D000B2D5FFF7C1F8801B6428F7D9E8E7B3F569
:1013E000A02F236803D143F480232360D1E723F4A3
:1013F00080332360236823F48023CDE7674C636840
:1014000013F00C0F07D0636803F00C03082B10D106
:101410006368DA030DD423689B0702D52B69012B7F
:10142000AFD123686A6923F0F80343EAC20323605B
:1014300085E72A695A4B6AB101221A60FFF78CF8D6
:10144000064623689F07ECD4FFF786F8801B022826
:10145000F7D9ADE71A60FFF77FF8064623689807CB
:101460007FF56DAFFFF778F8801B0228F6D99FE76C
:10147000AA694A4C4B4BDAB101221A60FFF76CF8AB
:101480000646636A9B070DD54FF4FA52464B1B681C
:10149000B3FBF2F3019300BF019B5A1E0192002B94
:1014A000F9D150E7FFF758F8801B0228E9D97FE708
:1014B0001A60FFF751F80646636A9F077FF543AF4E
:1014C000FFF74AF8801B0228F6D971E7334CE3692D
:1014D000D80024D40127E36943F08053E361E36932
:1014E00003F080530093009B304E3368D90518D524
:1014F000EB68012B26D1236A43F001032362FFF737
:101500002BF841F288368046236A9B073FD5002F8F
:101510003FF41DAFE36923F08053E36117E7002731
:10152000E2E7336843F480733360FFF715F88046D1
:101530003368DA05DCD4FFF70FF8A0EB0800642865
:10154000F6D935E7ABB9236A41F2883823F00103B5
:101550002362236A23F004032362FEF7FDFF06469D
:10156000236A9807D3D5FEF7F7FF801B4045F7D9CC
:101570001EE7052B236A03D143F004032362BAE775
:1015800023F001032362236A23F00403B6E7FEF786
:10159000E3FFA0EB0800B042B6D909E70010024013
:1015A0000000424280044242F801002000700040E6
:1015B000224C636803F00C03082B3FF4E2AE0023D7
:1015C0001F4E022A33602BD1FEF7C6FF0746236861
:1015D00099011FD42B6AB3F5803F05D16268A968D1
:1015E00022F400320A436260696A62680B4322F4A3
:1015F00074121343636001233360FEF7ADFF0546A9
:1016000023689A013FF5A7AEFEF7A6FF401B02280C
:10161000F6D9CDE6FEF7A0FFC01B0228D7D9C7E652
:10162000FEF79AFF054623689B017FF594AEFEF70F
:1016300093FF401B0228F6D9BAE600BF0010024013
:101640006000424230B5194B87B002AC03F110057F
:10165000224618685968083303C2AB421446F7D1D2
:1016600001238DF80430022311498DF805304B68B1
:1016700003F00C02082A17D1C3F3834206A80244E0
:10168000DB0312F8102C0CD54B680A48C3F3404317
:10169000504306AA134413F8143CB0FBF3F007B010
:1016A00030BD05485043FAE70248F8E721410008F9
:1016B0000010024000127A0000093D004D4A2DE959
:1016C000F0411368054603F007038B420E4628D30A
:1016D0002A68910732D4D20738D4464A136803F0F7
:1016E00007039E4273D32A68434C12F0040F79D14A
:1016F000130706D563682A6923F4605343EAC203DB
:101700006360FFF79FFF63683C4AC3F30313D35C36
:10171000D8403B4B18600F20FEF718FF0020BDE8B3
:10172000F081136823F007030B431360136803F081
:1017300007039942CCD00120BDE8F0812E49A8686A
:101740004B6823F0F00303434B60C4E76A682A4CFC
:10175000012A23681CD113F4003FECD0636841F2E6
:10176000883823F0030313436360FEF7F5FE6B68CC
:101770000746012B14D1636803F00C03042BACD093
:10178000FEF7EAFEC01B4045F5D90320BDE8F08115
:10179000022A02D113F0007FDFE713F0020FDCE72B
:1017A000022B0FD1636803F00C03082B95D0FEF7D2
:1017B000D3FEC01B4045F5D9E7E7FEF7CDFEC01BC1
:1017C0004045E2D8636813F00C0FF6D185E7136843
:1017D00023F0070333431360136803F007039E42AB
:1017E000A9D180E76368E96823F4E0630B43636091
:1017F0007EE700BF00200240001002404541000883
:10180000F8010020044B054A5B68C3F30223D35C54
:10181000034A1068D8407047001002405541000844
:10182000F8010020044B054A5B68C3F3C223D35C74
:10183000034A1068D8407047001002405541000824
:10184000F801002070470223026880F83D301368D9
:1018500043F001031360012380F83D3000207047FE
:101860001A4A036890420AD0B0F1804F07D0A2F51F
:101870009432904203D002F58062904215D14A68BA
:1018800023F070031343114A90420AD0B0F1804F05
:1018900007D0A2F59432904203D002F580629042C4
:1018A00003D1CA6823F4407313434A6923F08003C9
:1018B000134303608B68C3620B688362034B9842D7
:1018C00004BF0B690363012343617047002C01408F
:1018D00010B50446A0B190F83D3003F0FF021BB9EB
:1018E00080F83C20FFF7AEFF0223206884F83D30EB
:1018F000211DFFF7B5FF0123002084F83D3010BD06
:10190000012010BD10B50124036A8C4023EA0403B2
:101910000362036A8A401A43026210BD10B504468E
:1019200000220068FFF7EEFF2368104A93420DD1B2
:1019300041F21112196A114208D140F24442196A67
:10194000114202BF5A6C22F400425A6441F2111251
:10195000196A114208D140F24442196A114202BF89
:101960001A6822F001021A60002010BD002C01400C
:1019700010B5044601220068FFF7C4FF2368064A39
:101980000020934202BF5A6C42F400425A641A6823
:1019900042F001021A6010BD002C0140FFF7E8BFC1
:1019A0002DE9F0470568C2682B69016923F44053AB
:1019B00013432B618368EA680B43416922F4B052F8
:1019C00022F00C020B431343EB606B69826923F432
:1019D000407313436B61404B81469D424FF01904A5
:1019E00046D1FFF71FFF04FB00F3D9F804604FF066
:1019F0006408B600B3FBF6F3B3FBF8F31E01FFF780
:101A000011FF6043D9F804309B00B0FBF3F7FFF7F8
:101A100009FF6043D9F804309B00B0FBF3F3B3FB3C
:101A2000F8F308FB13731B013233B3FBF8F303F035
:101A3000F007FFF7F7FE6043D9F804209200B0FBEF
:101A4000F2FAFFF7EFFE6043D9F804309B00B0FBD9
:101A5000F3F3B3FBF8F308FB13A31B013233B3FB1F
:101A6000F8F303F00F033B433344AB60BDE8F0876A
:101A7000FFF7C8FE04FB00F3D9F804604FF06408D8
:101A8000B600B3FBF6F3B3FBF8F31E01FFF7BAFEA3
:101A90006043D9F804309B00B0FBF3F7FFF7B2FEC8
:101AA0006043D9F804309B00B0FBF3F3B3FBF8F3C9
:101AB00008FB13731B013233B3FBF8F303F0F00799
:101AC000FFF7A0FE6043D9F804209200B0FBF2FAC1
:101AD000FFF798FEB7E700BF00380140704710B528
:101AE000044640B390F8393003F0FF021BB980F888
:101AF0003820FFF7F3FF2423226884F83930D368B5
:101B0000204623F40053D360FFF74AFF23680020E8
:101B10001A6922F490421A615A6922F02A025A6123
:101B2000DA6842F40052DA602023E06384F8393046
:101B300084F83A3010BD012010BD7FB50F2302217B
:101B400001934FF48062002301A802910393049251
:101B50000593FFF7B3FDB0FA80F0400907B05DF8D8
:101B600004FB00000F4B1A6842F001021A6059682A
:101B70000D4A0A405A601A6822F0847222F48032B8
:101B80001A601A6822F480221A605A6822F4FE024F
:101B90005A604FF41F029A604FF00062034B9A6044
:101BA000704700BF001002400000FFF800ED00E0A9
:101BB000012310B58AB00093A0B94FF4803301938C
:101BC000022307934FF48033002408934FF4E0136B
:101BD000684602940993FFF7A9FB30B9FFF7ADFF00
:101BE0000AB010BD4FF4A023E9E72046F8E703232D
:101BF00010B58AB0009301230493102305930223A8
:101C0000002407934FF460136846019408940993E5
:101C1000FFF78CFB18B9FFF790FF0AB010BD204604
:101C2000FBE7000008B50120FFF7C2FF28B9FFF766
:101C3000DEFF10B9014800F077FC08BD3141000813
:101C4000114A124B516801F00C01042901D00829F6
:101C50000AD00F49196052680E49C2F30312895C19
:101C60001A68CA401A60704751685068C1F38341CE
:101C7000C00301F1020102D407484143EAE750687A
:101C80008003F9D40248F8E700100240F801002070
:101C900000127A004541000800093D00074B084A40
:101CA00013601A69910707D5DA68920704D56FF0B7
:101CB00002021A6100F00EBB704700BF000800402E
:101CC000040500200048704760410008224B37B5EA
:101CD000DA69224C42F00402DA61DA69002502F086
:101CE00004020192019A1A6942F004021A611A6907
:101CF00022F004021A61FFF7A3FF194B194A23606F
:101D00004FF6FF73E360184B20461B682561B3FB59
:101D1000F2F3013B6360A5606561A561FFF7D8FD43
:101D200029462046FFF73AFE104B114A9B68204691
:101D3000C3F8B8204FF080420E4B1A60FFF783FDC6
:101D40002268D36823F00203D3600B4B1D600B4B5A
:101D50001D6003B030BD00BF00100240040500202C
:101D60000008004040420F00F801002000ED00E0B4
:101D70009D1C000800E100E0BC020020B802002029
:101D8000044800210268D36823F00203D360FFF700
:101D900005BE00BF04050020014B586A704700BF14
:101DA000000800406FF00202044B1B6858631A6180
:101DB000DA6842F00202DA60704700BF04050020D2
:101DC0006FF00202054B1B681A615A6942F0020269
:101DD0005A61DA6842F00202DA60704704050020B6
:101DE000034B1A68D36823F00203D360704700BF27
:101DF000040500206FF00202014B1B681A61704756
:101E00000405002008B500210348FFF787FDBDE861
:101E10000840FFF7E5BF00BF0405002038B50446C1
:101E20000D4603685AB18268204613600121FEF70F
:101E300085FB29462046BDE83840FEF77BBBC268DB
:101E4000F2E770B50E4604461546FEF751FB013623
:101E500006D02A462046BDE870400021FFF7DEBFCD
:101E600070BD0022FFF7EDBF13B5044601300FD15E
:101E700002B010BD9C420AD120468968FEF784FF5B
:101E80000021204602B0BDE81040FFF77DB80C31BC
:101E9000B1F900305A1CEDD10023224600930249CB
:101EA000024800F061FB00BF994100083001018049
:101EB000884207B502460AD0431C08D0013105D03C
:101EC000002305490093054800F04EFB01460846F3
:101ED00003B05DF804FB00BF6841000830010180D9
:101EE000B1F900305A1C01D118467047834201D124
:101EF000486870470C31F3E7431C07B50AD0FFF779
:101F0000EFFF431C06D10023024600930349044817
:101F100000F02AFB03B05DF804FB00BF7941000824
:101F2000300101802DE9F74FD0F804A004469AF85B
:101F30003A30002B46D103685B68984763681B6A98
:101F400098423FD0DAF82030DAF80840A0EB0308D6
:101F5000CAF82000DAF80C30314808EA0308844255
:101F600046464FF0000727D0DAE90A239AF83BB03B
:101F7000A8FB0089CDE900230025BBF1000F2BD081
:101F80005A464046494601F085FBDDE9002312EB45
:101F9000080243EB090390465A46994606460F4607
:101FA00001F084FBB8EB000069EB0101A94208BF16
:101FB000A0420AD2CAE90A01DAE90C23B6185F4145
:101FC000CAE90C6703B0BDE8F08F013647F100079E
:101FD000001B61EB0501EDE722462B4640464946D2
:101FE00001F070FB224606460F46404649462B4606
:101FF00001F068FBDDE9008918EB020849EB0309F1
:10200000A94508BFA04502D2CAE90A89D4E701362A
:1020100047F10007B8EB040869EB0509F4E700BFD6
:1020200040420F00824206D98A420BD9884294BFAF
:10203000002001207047884206D98A428CBF0020C8
:102040000120704701207047002070472DE9F14FB3
:102050004768064697F83A30002B60D197F8393038
:10206000002B5CD1FFF75EFF75686B68002B59D0C1
:10207000D5E90C89D3E90001894508BF804505D31E
:1020800033685B6901B0BDE8F04F1847B0EB080852
:1020900061EB0909D5E906234B4508BF42452C6988
:1020A00006D3AB68254A93420FD1444528BF444626
:1020B0002A6A3B6A1444EA681440A34221D14FF4CF
:1020C00084721F491F4800F00FF995F83B20DFF894
:1020D00078A04FF0000B7AB14046494601F0E6FA8D
:1020E00010EB0A0041EB0B01144A002301F0EAFA5D
:1020F000844228BF0446DBE7A3FB080103FB091168
:10210000EEE7336820461B69984733685B68984759
:1021100022460146386AFFF785FF0028B0D101B09A
:10212000BDE8F08F3B69386AFA681844336810409C
:102130001B6901B0BDE8F04F184700BF40420F00D7
:10214000AA410008F44100083F420F002DE9F04F7A
:10215000436885B093F838200546002A64D193F887
:102160003A30002B60D103681B6898472B68DB6905
:102170009847076827B92D222D492E4800F0B4F85A
:102180001F23012202FA03F18F425FFA83FB02D080
:10219000013BF7D19B46D0F804A0AAF104031C2B05
:1021A00001D93B22E8E707269E40002317F1FF30C4
:1021B000214C43F1FF313A46C4FB060101F082FA9B
:1021C00000236C682A682360636052680393CDE93A
:1021D000000190474FF000084FF0000920626C6842
:1021E0005246C4E90A89A76084F83BB00120002167
:1021F00001F05CFADDE90023C4E90623039B013802
:1022000084F8393084F83A300123E06026612846AA
:10221000C4E90C8984F83830FFF784FE284605B0FD
:10222000BDE8F04FFFF712BF05B0BDE8F08F00BF6B
:10223000AA4100081F41000840420F0070B5044643
:1022400000F06EF82368DB689847636893F83A20DB
:102250001AB1BDE8704000F079B8012283F8392046
:1022600063685B68A3B12046FFF75CFE65686E6833
:10227000D5E90C01D6E90023994208BF904207D363
:10228000F3686B602B68002BEAD0B0689847E7E7EB
:1022900000226368204683F83920FFF7D7FED8E78D
:1022A00038B50446FFF752FF00F03AF82046FFF732
:1022B00039FE6368D3E90C4500F048F8204629460A
:1022C00038BD08B5FFF7ECFF08BD000000487047B7
:1022D00018420008024B1B680BB1024818477047B0
:1022E000FC0100201842000804460D46164607B5BA
:1022F00000F016F800962B4600222146014800F017
:1023000033F900BF4401FF80EFF31080C04300F0B9
:1023100001007047EFF30580003018BF01207047BF
:1023200010B5074C2368013304D1512205490648F2
:10233000FFF7DAFF00F044F923680133236010BD92
:1023400018030020404200088D420008054B1A681F
:1023500032B11A68013A1A601B680BB900F042B931
:10236000704700BF180300200122D0E84F3FC0E8AB
:10237000412F0029F9D1D8B2003018BF0120704791
:1023800008B50B48FFF7F0FF28B1FFF7C9FFBFF30F
:102390004F8F20BFFDE7FFF7BDFF08B1FEF704F93F
:1023A000FFF7B2FF0028F9D00120FEF72BFC00BF99
:1023B0005C03002070B5164C0D4634EA200428BF9B
:1023C000044616468EB03422002101A800F053FBCB
:1023D000019402960395FFF7A3FF0E4A1368013399
:1023E000012B136004D1342201A90B4800F038FB03
:1023F000342201A9094800F033FB094B1B680BB1DB
:1024000006489847FFF7A2FF00200EB070BD00BF3E
:102410000101FF801C03002028030020600300202E
:10242000200300202DE9F0412E4C0E462168804605
:10243000C1F34173032B0CBF4D428DB2C1F307436F
:10244000174629482A46FEF707F96FF498731D448A
:10245000132D0FD8DFE805F00A2D3033363C393F15
:102460000E0E0E0E0E0E0E0E0E0E0E42A1681F4820
:10247000FEF7F2F84046FEF7C5F861681C48FEF723
:10248000EBF84EB11B48FEF7BDF83046FEF7BAF840
:1024900039461948FEF7E0F8A1681848FEF7DCF85D
:1024A00021681748FEF7D8F8BDE8F0411548FEF757
:1024B000D3B8A1681448DBE7A1681448D8E7A1683D
:1024C0001348D5E7A1681348D2E7A1681248CFE7BF
:1024D000A1681248CCE7A1681148C9E71148FEF786
:1024E000BBF8C7E760030020D3420008244300087C
:1024F000CC430008DD430008E5430008E943000839
:10250000FD430008494400083A4300084A430008D4
:10251000594300086C4300088043000894430008B6
:10252000A3430008B94300080FB407B50B4875462C
:10253000FFF71AFF044670B901462A460848FFF71C
:1025400039FF214607482246FFF76CFF05A904988A
:102550000191FEF767F8FFF713FF00BF2403002087
:102560000001FF80BE42000880B506460948F046DB
:102570000C4617461D46FFF7F7FE48B94246394656
:102580003046FFF717FF029A29462046FFF74AFF19
:10259000FFF7F6FE2403002070B50446FFF796FE11
:1025A0000646FFF78EFE05463046FFF78AFE401BC3
:1025B000A042F9D370BD4FF47A735843FFF7ECBFD4
:1025C000EFF31083DB4372B6044A117829B904494A
:1025D00003F001030B700123137070479503002073
:1025E0009403002008B5EFF31083DB0704D43622F0
:1025F00005490648FFF778FE0022054B1A70054B87
:102600001B7803B162B608BD63440008B7440008F4
:102610009503002094030020014B1868704700BF09
:10262000000200208A892DE9F041054610070C467A
:102630005AD44B68002B05DC0B6C002B02DC00200D
:10264000BDE8F081E66A002EF9D0002312F4805232
:102650002F682B6033D0606DA3895A0705D5636856
:10266000C01A636B0BB1236CC01A00230246E66AE2
:10267000216A2846B047431CA38906D129681D2931
:102680004BD82B4ACA40D60747D500226260226940
:10269000D904226004D5421C01D12B6803B96065BE
:1026A000616B2F600029CAD004F14403994202D023
:1026B000284601F093F900206063BDE8F081216AAB
:1026C00001232846B047411CC6D12B68002BC3D03C
:1026D0001D2B01D0162B01D12F60B0E7A38943F049
:1026E0004003A381BDE8F0810F69002FA7D09307B5
:1026F00018BF00230E6808BF4B69A6EB07080F60E0
:102700008B60B8F1000F9ADD43463A46216A2846AD
:10271000A66AB047002807DCA38943F04003A381E1
:102720004FF0FF30BDE8F0810744A8EB0008E8E770
:102730000100402038B50B6905460C46DBB118B1E5
:1027400083690BB900F072F80C4B9C4209D16C689C
:10275000B4F90C307BB121462846BDE83840FFF77C
:1027600061BF074B9C4201D1AC68F1E7054B9C422D
:1027700008BFEC68ECE7002038BD00BFF444000857
:1027800014450008D4440008014620B9044B05490B
:10279000186800F0B7B8044B1868FFF7CBBF00BF4C
:1027A000344500083527000800020020014900F0E8
:1027B000A9B800BF35270008002310B50446036000
:1027C0004360836081814366C281036143618361A9
:1027D000194608225C3000F04EF9054B2462636212
:1027E000044BA362044BE362044B236310BD00BFA0
:1027F000493000086B300008A3300008C7300008DB
:1028000070B568254A1E55430E4605F1740101F066
:10281000E1F8044640B1002180E842000C30A0609D
:1028200005F1680200F027F9204670BD836910B5F4
:10283000044633BB8364C3640365124B124A1B68AE
:102840008262984204BF0123836100F01FF8606038
:10285000204600F01BF8A060204600F017F8002288
:10286000E06004216068FFF7A7FF01220921A0684A
:10287000FFF7A2FF02221221E068FFF79DFF01236C
:10288000A36110BD34450008AD270008F8B51C4B06
:1028900007461E68B36913B93046FFF7C7FF4836CD
:1028A000B4687368013B03D5336833B13668F7E722
:1028B000B4F90C506DB16834F4E704213846FFF7E1
:1028C0009FFF30600028F1D10C2304463B60204676
:1028D000F8BD4FF6FF73E38101236566A381256090
:1028E000A560656025616561A5610822294604F13E
:1028F0005C0000F0C0F86563A563A564E564E6E7E5
:10290000344500082DE9F84380468946002600F149
:10291000480414B93046BDE8F883A5686768013FEC
:1029200001D52468F5E7AB89012B07D9B5F90E303D
:10293000013303D029464046C84706436835EEE7D1
:1029400070B500250C4E0D4CA41BA410A54209D156
:1029500001F030F900250A4E0A4CA41BA410A54230
:1029600005D170BD56F8253098470135EEE756F889
:10297000253098470135F2E7680200206802002000
:10298000680200207002002070B50E46B1F90E10EA
:1029900090B0002914461D4607DA00232B60B38946
:1029A0001A0610D44FF480630EE001AA00F0B4FCC4
:1029B0000028F2DB029A02F47042A2F500535A4258
:1029C0005A412A60EEE740230020236010B070BD1A
:1029D0008B8973B59D0706460C4607D504F147035E
:1029E000236023610123636102B070BD01AB6A46BD
:1029F000FFF7CAFF00990546304600F0EBFF48B9E3
:102A0000B4F90C309A05EFD423F0030343F002032A
:102A1000A381E3E70D4BB362A389206043F08003F9
:102A2000A381009B20616361019B5BB1B4F90E102F
:102A3000304600F083FC28B1A38923F0030343F060
:102A40000103A381A3891D43A581CDE7AD2700081C
:102A5000024B0146186800F0C1BF00BF0002002011
:102A600010B5431E0A44914200D110BD11F8014B2C
:102A700003F8014FF7E703460244934200D1704741
:102A800003F8011BF9E7936810B4013B002B936036
:102A900008DA9469A34202DBCBB20A2B02D110BC44
:102AA00000F058BB1368581C10601970C8B210BCF5
:102AB0007047F8B506460F461446D518AC4201D10A
:102AC000002007E03A4614F8011B3046FFF7DBFF11
:102AD000431CF3D1F8BD00002DE9F04F9DB00C462A
:102AE00017460393064618B183690BB9FFF79EFE9C
:102AF0007C4B9C4257D17468A38918075DD5236924
:102B0000002B5AD00023099320238DF8293030233D
:102B10004FF0010B8DF82A30B846454615F8013BB9
:102B2000002B55D1B8EB070A0BD053463A46214645
:102B30003046FFF7BEFF013000F0C480099B5344CC
:102B4000099398F80030002B00F0BC8000234FF070
:102B5000FF3204930793059206938DF853301A932E
:102B600005222978604800F00BFC05F10108049B60
:102B7000002831D1D90644BF20228DF853201A07EE
:102B800044BF2B228DF853202A782A2A2CD00021EA
:102B90000A20079AA84698F800300135303B092BE7
:102BA0006DD971B326E0514B9C4201D1B468A3E7C3
:102BB0004F4B9C4208BFF4689EE72146304600F028
:102BC0002DFB00289ED04FF0FF301DB0BDE8F08FE8
:102BD000252BA7D0A846A0E7434A4546801A0BFA02
:102BE00000F018430490BBE7039A111D126803918B
:102BF000002A01DB079204E0524243F002030792ED
:102C0000049398F800302E2B10D198F8013008F179
:102C100001012A2B37D1039B08F102081A1D1B68FA
:102C20000392002BB8BF4FF0FF330593314D0322C1
:102C300098F80010284600F0A3FB40B14023401B49
:102C400003FA00F0049B08F101080343049398F889
:102C500000100622284808F101078DF8281000F01E
:102C60008FFB002834D0254B03BB039B073323F095
:102C7000070308330393099B4B4409934CE700FB7C
:102C80000232012186E700230A251846059388466B
:102C900098F800200131303A092A03D9002BC5D019
:102CA0000590C3E705FB00200123F0E703AB009389
:102CB0002246134B04A93046AFF30080B0F1FF3F2A
:102CC0008146D8D1A3895B063FF57DAF09987CE7A3
:102CD00003AB009322460A4B04A9304600F094F857
:102CE000ECE700BFF444000838450008144500082C
:102CF000D44400083E45000842450008000000009A
:102D0000B32A000813460A46014602480068FFF746
:102D1000E3BE00BF000200202DE9F04791461F46A8
:102D20008A680B6906469342B8BF1346C9F800305B
:102D300091F843200C46DDF8208012B10133C9F828
:102D400000302368990642BFD9F800300233C9F831
:102D50000030256815F0060507D104F1190AE3686B
:102D6000D9F800209B1A9D422ADB94F84330226850
:102D7000003318BF012392062FD404F143023946D1
:102D80003046C047013022D02368E56803F00603CF
:102D9000042B18BF0025D9F800204FF0000908BF08
:102DA000AD1AA368226908BF25EAE5759342C4BF3E
:102DB0009B1AED181A344D451BD10020BDE8F08751
:102DC0000123524639463046C047013003D14FF007
:102DD000FF30BDE8F0870135C1E73020E11881F808
:102DE00043005A1C94F845102244023382F84310E1
:102DF000C3E70123224639463046C0470130E6D0BA
:102E000009F10109D7E700002DE9F04317460A7ED2
:102E100085B06E2A984606460C460C9B01F1430E7F
:102E200000F0BC801AD8632A2ED00AD8002A00F0FD
:102E3000C880582A00F08A8004F1420584F84220B4
:102E40002AE0642A01D0692AF6D121681A6811F0B3
:102E5000800F23D0111D1960136827E0732A00F03A
:102E6000B48008D86F2A2AD0702AE5D10A6842F0C7
:102E700020020A6003E0752A21D0782ADCD178226A
:102E80006F4984F8452064E01A6801F14205111D7C
:102E90001960136884F842300123A3E011F0400F59
:102EA00002F104011960D7D0B2F90030002B03DA27
:102EB0002D225B4284F8432062490A2217E02068F1
:102EC000196810F0800F03D0081D18600B6806E029
:102ED00010F0400F01F104001860F7D00B886F2A42
:102EE00014BF0A2208225749002084F8430065686D
:102EF000002DA560C0F29C80206820F004002060B6
:102F0000002B3FD1002D40F095807546082A0BD14B
:102F10002368DA0708D5236962689A42DEBF302346
:102F200005F8013C05F1FF35AEEB05032361CDF853
:102F300000803B4603AA21463046FFF7EDFE0130F4
:102F400055D14FF0FF3005B0BDE8F08381F8452042
:102F50003C492268186812F0800F00F104051D60DA
:102F600001D0036802E05506FBD50388D00744BFB3
:102F700042F0200222601BB9226822F02002226067
:102F80001022B1E77546B3FBF2F002FB1033CB5CC5
:102F900005F8013D03460028F5D1B7E708681A682F
:102FA00010F0800F496904D0101D18601368196073
:102FB00007E010F0400F02F1040018601368F6D02B
:102FC0001980002375462361B1E71A68111D196045
:102FD000156800216268284600F0D2F908B1401B4C
:102FE000606063682361002384F843309FE72369AE
:102FF0002A4639463046C0470130A2D023689B0795
:1030000007D5002504F11909E368039A9B1A9D422C
:1030100005DBE068039B9842B8BF184693E701239D
:103020004A4639463046C04701308AD00135EBE781
:10303000002BA7D10B7804F1420584F8423065E7F4
:103040005A4500084945000810B50C46B1F90E1064
:1030500000F00EFB0028ABBF636DA3891B1823F49F
:103060008053ACBF6365A38110BD2DE9F0411F46BD
:103070008B890546DB050C46164605D50223002242
:10308000B1F90E1000F06AF9A389324623F4805397
:10309000A381B4F90E103B462846BDE8F04100F08C
:1030A000ABB810B50C46B1F90E1000F057F9431C3F
:1030B000A38915BF606523F4805343F48053A38133
:1030C00018BFA38110BDB1F90E1000F015B9034669
:1030D00013F8012B002AFBD1181A0138704730B5BC
:1030E000141E05469BB0184605DA8B234FF0FF30BF
:1030F0002B601BB030BD4FF40273ADF80C300CBF29
:10310000234604F1FF33029305934FF6FF730091BA
:103110000491ADF80E3002461E9B6946284600F029
:10312000B3F9431CBCBF8B232B60002CE1D00022E1
:10313000009B1A70DDE7000007B5009313460A46AE
:10314000014603480068FFF7CAFF03B05DF804FBBF
:1031500000020020F8B50E461446054618B18369F2
:103160000BB9FFF763FB214B9C422AD16C68A36922
:10317000A360A3891A072ED5236963B32369206846
:10318000F6B2C01A63693746984204DB21462846E6
:10319000FFF7D0FA28BBA3680130013BA360236886
:1031A0005A1C22601E706369984204D0A389DB0711
:1031B00019D50A2E17D121462846FFF7BBFA90B140
:1031C0000FE00B4B9C4201D1AC68D0E7094B9C420D
:1031D00008BFEC68CBE72146284600F01FF800281E
:1031E000CCD04FF0FF373846F8BD00BFF44400089C
:1031F00014450008D444000838B505460846114671
:103200000022054C22601A46FDF75EFC431C02D1E9
:10321000236803B12B6038BD4C050020324B70B5DC
:103220001D6806460C4625B1AB6913B92846FFF761
:10323000FDFA2E4B9C420FD16C68B4F90C309AB257
:1032400015072CD4D00611D40922326043F0400374
:10325000A3814FF0FF3070BD254B9C4201D1AC687B
:10326000EBE7244B9C4208BFEC68E6E7510712D518
:10327000616B41B104F14403994202D0304600F041
:10328000ADFB00236363A38923F02403A381002300
:10329000636023692360A38943F00803A381236942
:1032A0004BB9A38903F42073B3F5007F03D0214603
:1032B0003046FFF78DFBA28912F001030CD00023EA
:1032C000A36063695B42A361236953B9B4F90C300D
:1032D00013F08000BAD170BD920758BF6369A36034
:1032E000F2E70020F7E700BF00020020F4440008E6
:1032F00014450008D444000838B50023054C0546A1
:1033000008462360FDF7C4FB431C02D1236803B1C8
:103310002B6038BD4C05002038B50023064C05460F
:10332000084611462360FDF78EFC431C02D123683A
:1033300003B12B6038BD00BF4C05002038B5002319
:10334000054C054608462360FDF70EFC431C02D1E0
:10335000236803B12B6038BD4C05002038B5054605
:10336000084611460022054C22601A46FDF718FC5B
:10337000431C02D1236803B12B6038BD4C050020EB
:1033800010B5C9B202449042034601D1002010BDDD
:103390001C7801308C42F6D1184610BD884210B519
:1033A00001EB020303D8421E99420CD110BD984292
:1033B000F9D28118D21AD34200D110BD13F8014DB1
:1033C00001F8014DF7E711F8014B02F8014FEBE767
:1033D0002DE9F0478E6882469E420C4691469846FB
:1033E00035D88A8912F4906F31D002232568096993
:1033F0006F1A656905EB450595FBF3F508F10103C7
:103400003B449D4238BF1D46530531D5294600F047
:10341000E1FA064650B90C23CAF80030A3894FF0F0
:10342000FF3043F04003A381BDE8F0873A462169AD
:10343000FFF716FBA38923F4906343F08003A38175
:1034400026613E44266046466561ED1BA560464503
:1034500028BF4646494632462068FFF79FFFA368CB
:1034600000209B1BA36023681E442660BDE8F087F4
:103470002A4600F0B1FA06460028E1D121695046FB
:1034800000F0ACFAC7E700002DE9F04F9DB00393C0
:103490008B8980461C060D4616460FD50B696BB905
:1034A000402100F097FA2860286128B90C23C8F859
:1034B00000304FF0FF30C4E040236B6100230993DC
:1034C00020238DF8293030234FF0010B8DF82A305E
:1034D00037463C4614F8013B002B3CD1B7EB060ABB
:1034E0000BD05346324629464046FFF771FF013064
:1034F00000F0A280099B534409933B78002B00F015
:103500009B8000234FF0FF320493079305920693AC
:103510008DF853301A93052221785048FFF730FF79
:10352000671C049BD8B9D90644BF20228DF85320CC
:103530001A0744BF2B228DF8532022782A2A16D04E
:1035400000210A20079A27463B780134303B092B9B
:1035500050D9C9B111E0252BC0D02746B9E73F4A61
:103560003C46801A0BFA00F018430490D3E7039A04
:10357000111D12680391002A01DB079204E05242F8
:1035800043F00203079204933B782E2B0DD17B78F6
:10359000791C2A2B32D1039B02371A1D1B68039218
:1035A000002BB8BF4FF0FF3305932D4C0322397821
:1035B0002046FFF7E5FE38B14023001B03FA00F078
:1035C000049B0137034304933978062225487E1C67
:1035D0008DF82810FFF7D4FE002835D0224BFBB918
:1035E000039B073323F0070308330393099B4B44E2
:1035F00009936DE700FB02320121A4E700230A24AE
:10360000184605930F463A780131303A092A03D912
:10361000002BCAD00590C8E704FB00200123F1E786
:1036200003AB00932A46114B04A94046AFF3008038
:10363000B0F1FF3F8146D9D1AB895B063FF539AF89
:1036400009981DB0BDE8F08F03AB00932A46074BE5
:1036500004A94046FFF7D8FBEAE700BF3845000859
:103660003E4500084245000800000000D133000834
:1036700038B50546084611460022054C22601A4618
:10368000FDF74EFA431C02D1236803B12B6038BD0D
:103690004C050020D0400B1CD1409C46203AD34022
:1036A0001843524263469340184370479140031CAD
:1036B00090409C46203A9340194352426346D3407F
:1036C0001943704753B94AB9002908BF00281CBFE5
:1036D0004FF0FF314FF0FF3000F07AB9ADF1080C38
:1036E0006DE904CE00F006F8DDF804E0DDE9022320
:1036F00004B070472DE9F0478C460E460446089DFD
:10370000002B50D18A4217466CD9B2FA82FEBEF124
:10371000000F0BD0CEF1200C01FA0EF620FA0CFCB3
:1037200002FA0EF74CEA060C00FA0EF43A0CBCFB57
:10373000F2F9BBB202FB19CC09FB03FA4FEA1448B9
:1037400048EA0C46B2450AD9F61909F1FF3180F072
:103750002581B24540F22281A9F102093E44A6EB3F
:103760000A06B6FBF2F002FB106600FB03F3A4B2FC
:1037700044EA0644A34209D9E41900F1FF3280F07B
:103780000B81A34240F2088102383C440021E41A34
:1037900040EA0940002D62D0002324FA0EF42C6088
:1037A0006B60BDE8F0878B4207D9002D55D0002112
:1037B00085E841000846BDE8F087B3FA83F10029A7
:1037C00040F08F80B34202D3824200F2FC80841A20
:1037D00066EB03060120B446002D40D085E81010AA
:1037E000BDE8F08712B90127B7FBF2F7B7FA87FEF9
:1037F000BEF1000F35D10121F61B4FEA174C1FFA1D
:1038000087F8B6FBFCF20CFB126608FB02F0230CF7
:1038100043EA0646B04207D9F61902F1FF3302D255
:10382000B04200F2D2801A46361AB6FBFCF00CFB0E
:10383000106608FB00F8A3B243EA0644A04507D986
:10384000E41900F1FF3302D2A04500F2B980184616
:10385000A4EB080440EA02409CE729462846BDE85C
:10386000F08707FA0EF7CEF1200326FA03F24FEAAB
:10387000174CB2FBFCF11FFA87F80CFB112206FA79
:103880000EF620FA03F301FB08F933431E0C46EA57
:103890000246B14500FA0EF409D9F61901F1FF32DA
:1038A00080F08C80B14540F2898002393E44A6EB1D
:1038B0000906B6FBFCF00CFB106200FB08F99EB297
:1038C00046EA0246B14507D9F61900F1FF3371D235
:1038D000B1456FD902383E44A6EB090640EA0141E2
:1038E0008FE7C1F1200722FA07F88B4048EA03036B
:1038F00026FA07F44FEA134EB4FBFEF91FFA83FCD5
:103900000EFB19448E4020FA07F809FB0CFA48EA2E
:1039100006084FEA184646EA0444A24502FA01F2B4
:1039200000FA01F608D9E41809F1FF3044D2A245A3
:1039300042D9A9F102091C44A4EB0A04B4FBFEF02D
:103940000EFB104400FB0CFC1FFA88F848EA044404
:10395000A44507D9E41800F1FF3E29D2A44527D990
:1039600002381C4440EA0940A0FB0289A4EB0C0C7D
:10397000CC45C246CE4615D312D055B1B6EB0A039C
:103980006CEB0E0606FA07F7CB401F43CE402F60C4
:103990006E600021BDE8F0871046F7E68946DEE656
:1039A0004645EAD2B8EB020A69EB030E0138E4E7B8
:1039B0007046D7E718468FE78146BDE7114676E7A0
:1039C00002383C4444E7084606E7023A3E442BE707
:1039D000704700BF00F050B800F0ACB800F000B87D
:1039E00038B50546002943D051F8043C0C1F002B84
:1039F000B8BFE418FCF7B8FF1E4A1368104633B985
:103A0000636014602846BDE83840FCF7B1BFA342AC
:103A10000BD921686218934201BF1A685B6852187B
:103A2000226063600460EDE713465A680AB1A2425F
:103A3000FAD919685818A0420BD1206801445818C7
:103A400082421960DED110685268014419605A60E0
:103A5000D8E702D90C232B60D4E7206821188A42CA
:103A600001BF116852680918216062605C60C9E793
:103A700038BD00BF9803002070B5CD1C25F00305AC
:103A800008350C2D38BF0C25002D064601DBA94258
:103A900003D90C233360002070BDFCF765FF234A77
:103AA0001468214691B9224C23681BB9304600F0B6
:103AB00067F820602946304600F062F8431C26D1A2
:103AC0000C2330463360FCF753FFE4E70B685B1BC5
:103AD0001AD40B2B0FD90B60CC18CD503046FCF705
:103AE00047FF04F10B00231D20F00700C31A1BD071
:103AF0005A42E25070BD8C420BBF63684B68136042
:103B0000636018BF0C46E9E70C464968CAE7C41C65
:103B100024F00304A04205D0211A304600F030F80A
:103B20000130CDD02560D9E770BD00BF98030020DB
:103B30009C030020F8B5074614460E4621B91146ED
:103B4000BDE8F840FFF746BF22B9FFF747FF25461B
:103B50002846F8BD00F024F884420FD921463846A3
:103B6000FFF738FF05460028F2D031462246FEF71F
:103B700077FF31463846FFF731FFE9E73546E7E79B
:103B800038B50023054C054608462360FCF7C4FE03
:103B9000431C02D1236803B12B6038BD4C050020C3
:103BA00051F8040C0028A0F10400BCBF0B58C01849
:103BB00070470000F8B500BFF8BC08BC9E467047CF
:103BC000F8B500BFF8BC08BC9E4670470300000073
:103BD00000440040100000000A00000000380140CE
:103BE0001000000017000000003801401003000022
:103BF0001B00000000480040100000002B000000E7
:103C00000048004010050000FFFF0000FFFFFFFF1D
:103C1000000000000200000000440040120000000C
:103C200009000000003801401200000016000000EA
:103C300000380140120300001A0000000048004054
:103C4000120000002A000000004800401205000099
:103C5000FFFF0000FFFFFFFF0000000050696E6DD6
:103C60006170206572726F723A2077726F6E672092
:103C7000706F7274206E756D6265722E002F6275A2
:103C8000696C64732F77732F6D6265642D6F732D6C
:103C900063695F6D626564322D6275696C642D477E
:103CA00043435F41524D40322F6D6265642D6F7307
:103CB0002F746172676574732F5441524745545F86
:103CC00053544D2F6770696F5F6170692E63007088
:103CD000696E20213D202850696E4E616D65294E28
:103CE00043002E2E2E0A0000A00300200A2B2B20BA
:103CF0004D6265644F53204661756C742048616E57
:103D0000646C6572202B2B0A0A4661756C745479B9
:103D100070653A20004D656D4D616E616765466165
:103D2000756C74004275734661756C7400557361EF
:103D300067654661756C7400486172644661756CB4
:103D400074000A0A436F6E746578743A000A0A2D8B
:103D50002D204D6265644F53204661756C74204878
:103D6000616E646C6572202D2D0A0A004661756CC7
:103D70007420657863657074696F6E000A52252D32
:103D800034643A202530386C58000A5350202020E3
:103D90003A202530386C580A4C522020203A2025F1
:103DA00030386C580A50432020203A202530386C97
:103DB000580A78505352203A202530386C580A500F
:103DC000535020203A202530386C580A4D5350204B
:103DD000203A202530386C58000A43505549443A5F
:103DE000202530386C58000A48465352203A202586
:103DF00030386C580A4D4D4653523A202530386CB5
:103E0000580A42465352203A202530386C580A55F9
:103E1000465352203A202530386C580A44465352B3
:103E2000203A202530386C580A41465352203A2017
:103E30002530386C58000A4D4D4641523A20253005
:103E4000386C58000A42464152203A202530386CDE
:103E500058000A4D6F6465203A20546872656164A9
:103E6000000A50726976203A2055736572000A5034
:103E7000726976203A2050726976696C656765646C
:103E8000000A4D6F6465203A2048616E646C65726B
:103E9000000A537461636B3A20505350000A537404
:103EA00061636B3A204D5350000000000000000099
:103EB0000000000061080008B9080008C5080008F3
:103EC000650800084D0800085D0800081108000892
:103ED00059080008150800081F08000853080008C2
:103EE000290800082F080008350800083B080008CA
:103EF00047080008890800084B0800082F62756908
:103F00006C64732F77732F6D6265642D6F732D63EF
:103F1000695F6D626564322D6275696C642D47431B
:103F2000435F41524D40322F6D6265642D6F732F98
:103F3000706C6174666F726D2F6D6265645F72651F
:103F40007461726765742E6370700030203D3D208F
:103F5000282A67756172645F6F626A6563742026E0
:103F6000204358415F47554152445F4D41534B29CF
:103F7000004358415F47554152445F494E49545FA1
:103F8000494E5F50524F4752455353203D3D2028E4
:103F90002A67756172645F6F626A656374202620A8
:103FA0004358415F47554152445F4D41534B2900AF
:103FB00001010000020200000404000008080000E3
:103FC0001010000020200000404000008080000011
:103FD00001000104020002040400040408000804B3
:103FE00010001004200020044000400480008004E1
:103FF0002F6275696C64732F77732F6D6265642D02
:104000006F732D63695F6D626564322D6275696CD3
:10401000642D4743435F41524D40322F6D626564CA
:104020002D6F732F746172676574732F54415247FB
:1040300045545F53544D2F70696E6D61702E63004F
:1040400043616E6E6F7420696E697469616C697A20
:104050006520554152542077697468206261756407
:1040600020726174652025750A002F6275696C6481
:10407000732F77732F6D6265642D6F732D63695F86
:104080006D626564322D6275696C642D4743435FD0
:1040900041524D40322F6D6265642D6F732F7461F4
:1040A00072676574732F5441524745545F53544DA2
:1040B0002F73657269616C5F6170692E63006F6256
:1040C0006A5F732D3E7561727420213D2028554131
:1040D00052544E616D65294E43004572726F723ABB
:1040E000206E65772073657269616C206F626A6506
:1040F0006374206973207573696E672073616D65E1
:10410000205541525420617320535444494F006F4D
:10411000626A5F732D3E696E646578203E3D203093
:104120000002030405060708090A0B0C0D0E0F1008
:1041300010536574537973436C6F636B20666169C8
:104140006C65640A0000000000000000000102032A
:104150000406070809000000000102030400000033
:1041600040420F001000000070696E6D6170206D9C
:1041700069732D6D617463680070696E6D61702084
:104180006E6F7420666F756E6420666F7220706546
:10419000726970686572616C00636F756C64206E23
:1041A0006F742070696E6F7574002F6275696C642E
:1041B000732F77732F6D6265642D6F732D63695F45
:1041C0006D626564322D6275696C642D4743435F8F
:1041D00041524D40322F6D6265642D6F732F6861BF
:1041E0006C2F6D6265645F7469636B65725F61708B
:1041F000692E63006D617463685F7469636B20216D
:104200003D2071756575652D3E7469636B5F6C61EA
:1042100073745F726561640020420008D802002058
:10422000811D0008991D0008E11D0008F51D00080A
:10423000A51D0008C11D0008051E0008C51C0008BA
:104240002F6275696C64732F77732F6D6265642DAF
:104250006F732D63695F6D626564322D6275696C81
:10426000642D4743435F41524D40322F6D62656478
:104270002D6F732F706C6174666F726D2F6D626538
:10428000645F637269746963616C2E630063726951
:10429000746963616C5F73656374696F6E5F726587
:1042A000656E7472616E63795F636F756E7465724B
:1042B000203C2055494E5433325F4D4158004661F1
:1042C00074616C2052756E2D74696D652065727213
:1042D0006F72000A0A2B2B204D6265644F532045F4
:1042E00072726F7220496E666F202B2B0A457272B4
:1042F0006F72205374617475733A2030782558209A
:10430000436F64653A202564204D6F64756C653A8F
:104310002025640A4572726F72204D657373616760
:10432000653A20004B65726E656C204572726F7243
:104330003A203078256C582C2000546872656164EE
:104340003A203078256C582C20004D757465783AE9
:10435000203078256C582C200053656D6170686F93
:1043600072653A203078256C582C20004D656D6FB1
:104370007279506F6F6C3A203078256C582C200081
:104380004576656E74466C6167733A203078256CAB
:10439000582C200054696D65723A203078256C588D
:1043A0002C20004D65737361676551756575653ABD
:1043B000203078256C582C20004173736572746925
:1043C0006F6E206661696C65643A20000A4C6F6309
:1043D0006174696F6E3A203078256C58000A46691E
:1043E0006C653A20002B2564000A4572726F7220BA
:1043F00056616C75653A203078256C58000A466F16
:1044000072206D6F726520696E666F2C20766973FD
:1044100069743A2068747470733A2F2F61726D6DED
:104420006265642E6769746875622E696F2F6D62AC
:1044300065646F732D6572726F722F3F6572726F54
:10444000723D307825303858000A2D2D204D626598
:10445000644F53204572726F7220496E666F202D33
:104460002D0A002F6275696C64732F77732F6D624C
:1044700065642D6F732D63695F6D626564322D62B3
:1044800075696C642D4743435F41524D40322F6D37
:104490006265642D6F732F68616C2F6D6265645F58
:1044A000637269746963616C5F73656374696F6E6D
:1044B0005F6170692E6300216172655F696E74656A
:1044C0007272757074735F656E61626C65642829C1
:1044D00000000000000000000000000000000000DC
:1044E00000000000000000000000000000000000CC
:1044F00000000000000000000000000000000000BC
:1045000000000000000000000000000000000000AB
:10451000000000000000000000000000000000009B
:10452000000000000000000000000000000000008B
:104530000000000004020020232D302B2000686CB6
:104540004C006566674546470030313233343536B6
:1045500037383941424344454600303132333435EF
:104560003637383961626364656600000000000018
:0845700008BCFF7F0100000000
:1045780000000000FFFFFFFFFFFFFFFFFFFFFFFF3F
:104588000000000000000000000000000000000023
:104598000000000000000000000000000000000013
:1045A8000000000000000000000000000000000003
:1045B80000000000000000000000000000000000F3
:1045C80000000000000000000000000000000000E3
:1045D80000000000000000000000000000000000D3
:1045E80000000000000000000000000000000000C3
:1045F80000000000000000000000000000000000B3
:1046080000000000000000000000000000000000A2
:104618000000000000000000000000000000000092
:104628000000000000000000000000000000000082
:104638000000000000000000000000000000000072
:104648000000000000000000000000000000000062
:104658000000000000000000000000000000000052
:104668000000000000000000000000000000000042
:10467800000000005005002000A24A043D22000866
:104688000402002000000000F4440008144500085B
:10469800D4440008000000000000000000000000F2
:1046A8000000000000000000000000000000000002
:1046B80000000000000000000000000000000000F2
:1046C80000000000000000000000000000000000E2
:1046D80000000000000000000000000000000000D2
:1046E800000000000000000031010008110200086D
:0846F8000D01000800000000A4
:04000005080012AD30
:00000001FF
